:020000040800F2
:1000000028090020E1010008E91D0008D11A0008B4
:10001000E51D00086D0B0008E11E0008000000004F
:10002000000000000000000000000000D51E0008D5
:10003000F10B000800000000ED1D0008D91E0008AB
:10004000FB010008FB010008FB010008FB010008A0
:10005000FB010008FB010008FB010008FB01000890
:10006000FB010008FB010008FB010008FB01000880
:10007000FB010008FB010008FB010008FB01000870
:10008000FB010008FB010008FB010008FB01000860
:10009000FB010008FB010008FB010008FB01000850
:1000A000FB010008FB010008FB010008FB01000840
:1000B000FB010008FB010008FB010008FB01000830
:1000C000FB010008FB010008FB010008FB01000820
:1000D000FB010008FB010008FB010008FB01000810
:1000E000FB010008FB010008FB01000800F002F81A
:1000F00000F067F80AA090E8000C82448344AAF15B
:100100000107DA4501D100F05CF8AFF2090EBAE858
:100110000F0013F0010F18BFFB1A43F0010318473B
:10012000BC2D0000DC2D00000A444FF0000C10F83C
:10013000013B13F0070408BF10F8014B1D1108BF65
:1001400010F8015B641E05D010F8016B641E01F805
:10015000016BF9D113F0080F1EBF10F8014BAD1C55
:100160000C1B09D16D1E58BF01F801CBFAD505E073
:1001700014F8016B01F8016B6D1EF9D59142D6D3CD
:10018000704700000023002400250026103A28BFF5
:1001900078C1FBD8520728BF30C148BF0B607047F9
:1001A000662902F03D86002070471FB500F002FB73
:1001B00004000020002102F08DFDE0601FBD10B59D
:1001C00010BD00F0F7FB1146FFF7EFFF01F0E6FF6F
:1001D00000F015FC03B4FFF7F2FF03BC00F058FC7D
:1001E0000948804709480047FEE7FEE7FEE7FEE7CB
:1001F000FEE7FEE7FEE7FEE7FEE7FEE70448054907
:10020000054A064B70470000DD1E0008ED0000089F
:1002100028030020280900202805002028050020A8
:100220000FB41CB5074B06AA7B446946009005989D
:1002300000F0A7FA0020694600F0B6FA1CBC5DF891
:1002400014FB00007D0500002DE9F0474FF0000A87
:1002500089460446C0F820A02046E1688847002867
:1002600076D0252806D0D4E901219047206A401C89
:100270002062F1E7E168204600258847C4F81CA009
:1002800006460027C4F818A02A2E09D0304602F0EE
:1002900019FD38B304EB8708303EC8F8186019E040
:1002A00059F8041B204604EB87029161E1688847F6
:1002B000012F064618D1E069002820DA25F0200534
:1002C0001DE0D8F8180000EB800006EB4000303845
:1002D000C8F818002046E1688847064602F0F2FC9C
:1002E0000028EED1012F0AD02E2E08D12046E16839
:1002F00088477F1C0646022F45F02005C4DBA06915
:10030000002803DA404245F00105A061E80701D06A
:1003100025F01005B6B1A6F14100192802D8203603
:1003200045F400654A463146204625604D46FFF7B4
:1003300037FF58B1012806D0ED1D25F0070000F168
:10034000080989E704E005F1040985E730468AE7F2
:10035000206ABDE8F0877047704770472DE9FF4F6E
:100360000C461E464FF0FF378BB0D2E90001DDF896
:1003700060800A908A46C1F30A5505B93D460021BE
:1003800008464FF00000BAF1000F00F4400005DA13
:1003900000EB80004FF4400101EA50004FEA905911
:1003A000B9F1010F00DDB9460A9850EA4A000ED0B3
:1003B00044F61050A5F2FF3545432F14B8F1000F55
:1003C0001ED07542291E1EDDC9F100021CE0B8F1E5
:1003D000010F4FF0000001D0302103E0F24305E0AF
:1003E0002154401CB042FBDB304600220021215446
:1003F0000B99C1F80880C1E900200FB0BDE8F08F6B
:10040000BD1B6D1CDEE74A4600DA694206A800F013
:100410005BFA06AB93E8070003AB83E8070050469E
:100420000A9902F073F88DE80700A0F500501F3814
:1004300000900398002D0ADD42F21F014A4608444D
:10044000002303A90390684602F0DCFA09E0A0F556
:1004500000504A461F38002303A90390684602F063
:10046000E6FA8DE807000004000C03D04FF0FF30DF
:10047000410800E01046B8F1000F03D000220092BE
:1004800015461EE0751E05D400F098F9303262550D
:100490006D1EF9D5B3460122084302D000227F1C0D
:1004A00004E02078302801D100227F1E002A09971D
:1004B00084D01DE0112D07DA00F080F9303262554A
:1004C0006D1C50EA0102F5D1084302D00098C8B172
:1004D0000EE00021681E05E0235C625C6354225438
:1004E000401E491C8142F7DBAB46A81B401E099009
:1004F000002004F80B000B98099AC0F80880C0E9A6
:10050000002B7AE711264FF0000857E72DE9F04F4E
:1005100088460446D21D22F0070191B0D1E90001BE
:10052000CDE90A0102F0BAFB02460B98C00F01D0D8
:100530002D2007E02068810701D52B2002E0202133
:1005400001EAC000032A099001D0072A05DB03460F
:100550004146204600F078F90BE12078800601D56D
:10056000E06900E00620B8F1650F814606D0B8F1D9
:10057000660F18D0B8F1670F70D131E00020B9F1E3
:10058000110F009001DB112301E009F101030AAA18
:1005900001A90CA8FFF7E2FEDDE90C70002609F1C5
:1005A0000105834647E001204B4600904FF000478D
:1005B0000AAA01A90CA8FFF7D1FEDDE90DB00C993C
:1005C0005D46002610B909F101000D18B9EB0500D0
:1005D00003D4C0F1FF3609F10105A5EB09002BE0BA
:1005E000B9F1010F01DA4FF001090020B9F1110F43
:1005F0000090484601DD112300E003460AAA01A944
:100600000CA8FFF7ABFEDDE90C704D4600268346D3
:10061000207800070AD4AB4500DA5D4601A8012D19
:1006200004DD411911F8011C302907D04F4502DAC9
:1006300017F1040F04DA012082460FE06D1EEEE789
:10064000002F02DCED1B3E4403E0781CA84200DDD5
:100650007D1CB81B00F1010A4FF00047207800070D
:1006600003D4AA4501DB4FF0FF3A0021B7F1004F58
:100670000DF143088DF8431024D002202B23002FC6
:1006800001DA7F422D230A21021EA0F1010000DCC5
:100690005FB197FBF1FC97FBF1F201FB1C7C174665
:1006A0000CF1300C08F801CDEEE7A8F10100037061
:1006B0002188090501D5452100E06521A0F1010847
:1006C00000F8011C09980FA9A1EB0807FF1D00B154
:1006D0000120411901EBEA70A1693844081A401E53
:1006E000A0612078C00602D42046AFF300800998AC
:1006F00028B1D4E901219047206A401C206220786B
:10070000C00622D52046AFF300801EE0002E04DB99
:10071000B34502DD01A8805D00E03020D4E901216D
:100720009047206A401C2062761CAAF101005FEA13
:10073000000A0AD100F03EF8C0680168405CD4E9C4
:1007400001219047206A401C2062281EA5F1010566
:10075000DCDC07E0D4E9012118F8010B9047206A9E
:10076000401C2062381EA7F10107F3DC2046AFF3DE
:100770000080032011B041E601694A1C026108783B
:10078000704700B58FB0CDE90131002105910549D1
:100790007944CDE9031011466846FFF755FD0FB0C7
:1007A00000BD0000E5FFFFFF0A6802F8010B0A60C8
:1007B00070470000004870475802002030B5B0F183
:1007C0000A0271F100034FEA900E4EEA817EB0EB0F
:1007D0000E0061EB91014FEA101E4EEA017E10EB14
:1007E0000E0041EB11114FEA102E4EEA016E10EB94
:1007F0000E0041EB11214FEA104E4EEA014E10EB74
:100800000E0041EB1141401841F100014FEAD000C8
:1008100040EA41704FEAD1014FEA810444EA907402
:1008200010EB800544EB01046D1944EB0404521BEA
:10083000A3414FF0000348BF0A3200D530BD401C31
:1008400041F1000130BD00002DE9F0411F46044692
:1008500003260168072A01F4006004DB08B116A52D
:1008600005E016A503E008B115A500E015A521F0E7
:1008700010002060A069C01EA0610FB1401EA061E1
:100880002046AFF300804FB1D4E9012138469047AC
:10089000206A401C2062C01C206206E0206AFAE741
:1008A000D4E9012115F8010B9047761EF8D22046B5
:1008B000AFF30080BDE8F0814E414E006E616E00E6
:1008C000494E4600696E66002DE9F047814616469E
:1008D0008AB0354878440DC88DE80D003248784418
:1008E000801C03AC0DC884E80D0041F69B30084421
:1008F000372190FBF1F290FBF1F5A5F1800501FBAA
:1009000012041B3C02D56442012000E00020DFF805
:1009100098A080460027FA44AAF1BE0A0EE0E0073C
:100920000AD03246684607EB470101230AEB8101F2
:1009300002F07DF88DE8070064107F1C002CEED1DA
:10094000194F7F44AE3F19E0E80715D007EB0410BC
:100950000DF1180A90E80E008AE80E00C068F04217
:1009600001D1981908903246012306A903A802F084
:100970005EF803AB83E807006D10641C002DE3D123
:100980004FF0010332466946B8F1000F03A802D0C8
:1009900002F038F801E002F04AF8C9E90001C9F8AC
:1009A00008200AB0BDE8F087C8250000004870475D
:1009B000380200207546FFF7F9FFAE46050069468C
:1009C000534620F00700854618B020B5FFF716FC07
:1009D000BDE820404FF000064FF000074FF0000840
:1009E0004FF0000BAC46ACE8C009ACE8C009ACE87D
:1009F000C009ACE8C00921F007018D46704710B569
:100A00000446AFF300802046BDE81040FFF7E2BB8C
:100A10004FF0013C50F8042B51F8043B9A4221D18D
:100A2000A2EB0C03934313EACC1317D150F8042B19
:100A300051F8043B9A4215D1A2EB0C03934313EAFD
:100A4000CC130BD150F8042B51F8043B9A4209D136
:100A5000A2EB0C03934313EACC13DBD04FF000005E
:100A6000704700BFD01A01BAB1FA81F101F0180144
:100A700022FA01F0CB40DBB2C0B2C01AC1F12001B2
:100A80002CFA01F3D11A914311EAC311E6D1704750
:100A900001491820ABBEFEE72600020070470000A7
:100AA00070B514460D46064600F08AF840F29820CC
:100AB000C2F20000C0E901650480284621460122F7
:100AC00000F0B6F90A20BDE8704000F093B80000CD
:100AD000F0B583B040F29825C2F20005AA682988D3
:100AE0008DF80B0010460022002700F0A1F90A2023
:100AF00000F03EF868680DF10B04214601226423E2
:100B0000642600F091FD192000F032F868680DF1BC
:100B10000A02214601238DF80B70009600F070FE4A
:100B2000052000F025F868680DF10902214601232F
:100B3000009600F065FE052000F01AF8686802AA29
:100B400021460123009600F05BFEA8682988012257
:100B500000F06EF99DF809009DF80A1000029DF85A
:100B6000082040EA0140104403B0F0BDFEE7000059
:100B700041F2040140F20803CEF20001C2F2000388
:100B80000A68D3F800C04DF68363C4F21B33ACFB94
:100B9000033C4FEA9C43584309E000BF0B689B1A93
:100BA000834228BF70470B689B1A834207D20B68A9
:100BB0009B1A834203D20B689B1A8342EED3704781
:100BC0004EF6FC50CEF200000168C90148BF7047E4
:100BD000016841F08071016041F20000CEF2000036
:100BE00000214160016841F001010160704700008F
:100BF00070470000B0B5044600F020F9054640F209
:100C00000000C2F200000078611C18BF044400BF5D
:100C100000F014F9401BA042FAD3B0BD2DE9F04F0B
:100C200082B041F20042C4F201020E6804239042F5
:100C300008BF0323002E009300F0F68040F20C4E14
:100C40004FF6FF7CC4F2010E00220124C1F2100C09
:100C50004FF0000A4FF0000943E000BF012502F009
:100C60000C040F27A7402BEA070705FA04F43C43BE
:100C700043F82640D1F804B040F20045C4F2010523
:100C80005FEACB332B6854BF23EA080343EA080327
:100C90002B606B685FEA8B3454BF23EA080343EA96
:100CA00008036B605FEACB24AB6854BF23EA0803F8
:100CB00043EA08035FEA8B24AB60DEF800304FF0B4
:100CC000010454BF23EA080343EA0803CEF80030C6
:100CD0000E680AF1010A36FA0AF302F1040200F082
:100CE000A38004FA0AF816EA080FF1D04B686345AE
:100CF00012DC122B56D8DFE803F0350B4549555569
:100D000055555555555555555555554D510000BFDF
:100D1000D1F80C9046E000BF4FF6FF77C1F22107F3
:100D2000BB420FDC0027C1F21107BB421AD00027DB
:100D3000C1F21207BB4215D00027C1F22107BB4206
:100D400010D02FE00027C1F22207BB420AD00027B3
:100D5000C1F23107BB4205D00027C1F23207BB42C6
:100D600020D100BF8B684BB1012B14BFC0F8148099
:100D7000C0F810804FF0080914E000BF4FF00409DC
:100D800010E000BFCB6803F108090BE04FF0000949
:100D900008E000BFCB6803F1040903E0CB6803F16E
:100DA0000C0900BF13460546BAF1080F24BF203BCB
:100DB00004352E680F279F40BE4309FA03F33343DF
:100DC0002B60CB79DB067FF583AF41F21804C4F2C8
:100DD000020423684FEA9A0643F001032360236864
:100DE00040F6000403F001030193019B40F200432D
:100DF000C4F20103A3F57E7353F826B0C4F20104D4
:100E0000A0420FD040F60044C4F20104A0423FF4D7
:100E100025AF41F20004C4F20104009DA04208BFC6
:100E200002251CE700251AE702B0BDE8F08F00009C
:100E3000002A08BF090401617047000040F2243015
:100E4000C2F200000068704740F2000040F2243116
:100E5000C2F20000C2F2000100780A681044086083
:100E60007047000080B542F20000C4F20200016841
:100E700041F010010160032000F07AF80F2000F02B
:100E800005F800F027F8002080BD000070B540F2A2
:100E90000006C2F2000640F208013278C2F20001F8
:100EA0004FF47A730968B3FBF2F20446B1FBF2F136
:100EB000084600F0F7FD0F2C4FF0010508D838B9AF
:100EC0004FF0FF3021460022002500F025F8746025
:100ED000284670BD82B041F21800C4F202000168D9
:100EE000022241F001010160016801F0010101915C
:100EF0000199416841F080514160406800F08050A4
:100F0000009000980420C4F20100016862F31A61A5
:100F1000016002B07047000010B54EF60C5CCEF2D6
:100F2000000CDCF80030C3F3022E8EF00704042C12
:100F300028BF0424BEF103034FF0FF3E0EFA04F471
:100F400038BF0023A14399400EFA03F39A4311439B
:100F500000F00F02043A624409010C3200F16043D0
:100F6000B0F1FF3FC8BF03F56442117010BD00002F
:100F70004EF60C51CEF200010A684FF6FF031A40FC
:100F800060F30A2242F0806040F0FD700860704714
:100F90002DE9F04381B0002800F0858042F200087E
:100FA000C4F202080446D8F800000D4600F007001D
:100FB00088420CD2D8F8000020F007002843C8F877
:100FC0000000D8F8000000F00700A8426BD12068AC
:100FD00041F204098107C4F2020917D5410705D57A
:100FE000D9F8001041F4E061C9F80010010705D5F7
:100FF000D9F8001041F46051C9F80010D9F8001078
:10100000A26821F0F0011143C9F80010C00741D1D6
:10101000D8F8000000F00700A8420CD9D8F800006A
:1010200020F007002843C8F80000D8F8000000F0BE
:101030000700A84237D12068410707D5D9F800102A
:10104000E26821F4E0611143C9F80010000708D5F7
:10105000D9F80000216920F4605040EAC100C9F8C5
:101060000000D9F8002002F00C00082841F200200E
:10107000C0F27A0050D142F6CA63C2F38341C0F68F
:101080000003595CD2033BD440F60010C0F23D008F
:10109000484341E0606802280AD001282AD159F863
:1010A000041C890308D4012001B0BDE8F08300BF0F
:1010B00059F8041C8901F6D5D9F8001021F0030174
:1010C0000843C9F80000FFF7B9FE064641F2883729
:1010D000D9F80000616800F00C00B0EB810F97D0E8
:1010E000FFF7ACFE801BB842F2D9032001B0BDE887
:1010F000F08300BF59F8041C8907D4D5DCE700BF92
:10110000D9F8002042F6B863C2F34042C0F60003AB
:101110009A5C4843B0FBF2F0D9F8001042F6BA628C
:10112000C1F30311C0F60002515C40F2080220FA3C
:1011300001F140F20400C2F200000068C2F20002B5
:101140001160FFF7A3FE002001B0BDE8F0830000AE
:101150002DE9F04182B0002868D00446007841F2C1
:101160000006C007C4F2020625D0706800F00C002B
:1011700004281BD0706800F00C00082802D17068A9
:10118000C00313D46068002800F06881B0F5A02F78
:1011900000F07C81B0F5803F00F07C81306820F465
:1011A00080303060306820F4802076E13068800341
:1011B00001D56068D0B32078800718D5706810F02A
:1011C0000C0F07D0706800F00C0008286ED1706812
:1011D000C0036BD43068800702D52069012825D16F
:1011E0003068616920F0F80040EAC1003060207882
:1011F00000071FD42078400732D4E56995B17068A4
:1012000000F00C00082840F08F80012D0ED070688F
:10121000216A00F480328A4208D1616A00F47010B9
:10122000884203D1002002B0BDE8F081012002B065
:10123000BDE8F081A069002862D00020C4F24220FD
:101240000121C0F88014FFF7F9FD0546706A800798
:1012500000F18C80FFF7F2FD401B0228F6D92AE14D
:10126000F06910F0805808D1F06940F08050F061CA
:10127000F06900F080500090009847F20007C4F237
:1012800000073868C00529D4386840F48070386099
:10129000FFF7D4FD054600BF3868C0051ED4FFF730
:1012A000CDFD401B6428F7D905E100BF2069002867
:1012B00040F20000C4F2422000F08280012101606F
:1012C000FFF7BCFD054600BF306880073FF588AFDB
:1012D000FFF7B4FD401B0228F6D9ECE0E0680028D7
:1012E00000F08080052800F09780012800F09880A9
:1012F000306A20F001003062306A20F0040092E091
:101300000020C4F242200021C0F88014FFF796FDAF
:10131000054600BF706A80077FF56CAFFFF78EFD52
:10132000401B0228F6D9C6E00027C4F2422700205D
:101330003866FFF783FD022D05460BD1306880012A
:1013400040F1BE80FFF77AFD401B02284FF00300FA
:10135000F4D968E7306880017FF564AFFFF76EFD70
:10136000401B02284FF00300F4D95CE740F208006C
:10137000C2F20000006844F6D351C1F26201A0FB42
:101380000101480A019000BF00BF0198411E0028DA
:1013900001913FF42FAF00BF0198411E0028019139
:1013A0003FF428AF00BF0198411E002801913FF48F
:1013B00021AF00BF0198411E00280191E4D119E737
:1013C00000210160FFF73AFD054600BF3068800745
:1013D0007FF50DAFFFF732FD401B02284FF00300F1
:1013E000F4D920E7306A20F001003062306A20F042
:1013F00004003062FFF722FD054641F2883700BF46
:10140000306A800720D5FFF719FD401BB8424FF026
:101410000300F5D907E700BF306A40F004003062EE
:10142000306A40F001003062FFF708FD054641F2E6
:10143000883700BF306A800706D4FFF7FFFC401BE7
:10144000B842F7D937E000BFB8F1000F7FF4D5AE4E
:10145000F06920F08050F061CFE600BF306820F4E2
:1014600080303060306820F480203060FFF7E6FC88
:10147000054600BF306880037FF59DAEFFF7DEFCB8
:10148000401B64284FF00300F4D9CCE6306840F4E8
:1014900080203060306840F480303060FFF7CEFC50
:1014A000054600BF306880033FF585AEFFF7C6FCF8
:1014B000401B6428F6D9032002B0BDE8F08100BFCC
:1014C000206AB0F5803F05D17168A26821F400312F
:1014D000114371607168626A21F47411104308430A
:1014E000706001203866FFF7A9FC0446306880016F
:1014F0003FF598AEFFF7A2FC001B02284FF0030057
:10150000F4D990E670B538B10446406A30B1002095
:10151000206104F1140007E0012070BD6068B0F59F
:10152000827F03D004F11C00002101600026A66226
:1015300094F8510020B9204684F8506000F038F843
:10154000022084F8510094E8071001F482710368C6
:1015500002F4044223F040030360236911440CF4B5
:101560000062114403F002026369114403F00102B6
:10157000A369E569114403F40072114405F03802CF
:10158000256A114405F08002A56A114305F4005252
:1015900011430160042101EA13414160C16921F452
:1015A0000061C1610120666584F85100304670BD5C
:1015B00070B586B040F60004C4F20104006804F57A
:1015C000205100268842049602D006B070BD00BFAC
:1015D00041F21800C4F20200016802AD41F48051EA
:1015E0000160016801F4805101910199016841F0A5
:1015F000040101600068294600F004000190019890
:10160000A020029002200390032005902046FFF7BF
:1016100005FB4020CDE90206204629460496FFF747
:10162000FDFA06B070BD00002DE9F04381B004461C
:1016300090F85000012803D1022001B0BDE8F083EA
:101640004FF001091D4616460F4684F85090FFF7EB
:10165000F5FB94F85110012972D18046002F4FF00C
:10166000010018BF002E00F0C2800320002184F882
:10167000510061652763A686E686A163A187E1879D
:10168000A0682164B0F5004F2068616407D101684B
:1016900021F040010160016841F48041016001686E
:1016A000490603D4016841F0400101606168731E7E
:1016B000E268B1FA81F1B3FA83F349095B09B2F543
:1016C000006F41EA03013DD131B137F8021BC1601F
:1016D0002763E18E0139E186E18E00296CD0691C17
:1016E0001BD000BF8168890706D4FFF7A7FBA0EBDA
:1016F0000800A84208D348E0216B31F8022BC260F1
:101700002163E08E0138E086E08E002854D0206806
:1017100081688907E9D5EFE720688168890703D4E4
:10172000FFF78CFB08E000BF216B31F8022BC26091
:101730002163E08E0138E086E08E0028ECD13BE0AA
:10174000022054E039B139780173206B01302063F5
:10175000E08E0138E086E08E70B3681C0BD11BE090
:10176000216B09780173206B01302063E08E013812
:10177000E086E08E00B3206881688907F0D4FFF727
:101780005DFBA0EB0800A842F3D303202FE000BFCD
:10179000FFF754FBE08E78B1206881688907F7D5A0
:1017A000216B09780173206B01302063E08E0138D2
:1017B000E086E08E0028EFD1204680212A4643466D
:1017C00000F016FB28B1606D40F02000606520201D
:1017D0006065A06838B9002000902068C168009159
:1017E000806800900098606D002818BF01200021DB
:1017F00084F8519084F8501001B0BDE8F0830000E7
:101800002DE9F04381B0044690F85000012803D13F
:10181000022001B0BDE8F08301201E4615460F46A8
:1018200084F85000FFF70AFB94F851108146012913
:101830000CD06068B0F5827F40F0A080A0680028DE
:101840004FF0020008BF042940F09980002F4FF0AC
:10185000010018BF002D00F09280002E00F08F8054
:1018600094F85100002104281CBF052084F8510081
:101870006165A563E687A6872763E6862068A68656
:10188000216461640168490603D4016841F04001A4
:1018900001606168731EE268B1FA81F1B3FA83F303
:1018A000DDF8208049095B09B2F5006F41EA0301C8
:1018B0006ED131B137F8021BC1602763E08E013869
:1018C000E086012518F1010031D101E0FFF7B6FAF9
:1018D000E08E18B9E08F002800F0C280206881688F
:1018E00089070CD5E18E51B1012D08D1216B00255E
:1018F00031F8022BC2602163E18E0139E1868168F3
:10190000C907E3D0E18F0029E0D0C068A16B0125B1
:1019100021F8020BA163E08F0138E087D6E700BF12
:10192000FFF78CFAA0EB0900404580F0A980E08E1B
:1019300018B9E08F002800F093802068816889073B
:101940000CD5E18E51B1012D08D1216B002531F864
:10195000022BC2602163E18E0139E1868168C907EB
:10196000DED0E18F0029DBD0C068A16B012521F812
:10197000020BA163E08F0138E087D1E7022001214B
:1019800084F85110002184F8501001B0BDE8F083B4
:1019900039B139780173206B01302063E08E013852
:1019A000E086012518F1010032D101E0FFF746FA87
:1019B000E08E10B9E08F002852D020688168890736
:1019C0000ED5E18E61B1012D0AD1216B0025097878
:1019D0000173216B206801312163E18E0139E186B9
:1019E0008168C907E2D0E18F0029DFD0C068A16B10
:1019F00001250870A06B0130A063E08F0138E087FB
:101A0000D4E700BFFFF71AFAA0EB0900404539D22E
:101A1000E08E08B9E08F18B32068816889070ED579
:101A2000E18E61B1012D0AD1216B00250978017386
:101A3000216B206801312163E18E0139E1868168E3
:101A4000C907DFD0E18F0029DCD0C068A16B012578
:101A50000870A06B0130A063E08F0138E087D1E708
:101A60002046802142464B4600F0C2F960B1606DCD
:101A700040F0200060652020606501207FE700BF06
:101A800003207CE703207AE7A06800284FF00000DD
:101A90007FF475AF00902168CA6800928968009150
:101AA00000996CE7411E0020B0EB116F1CBF0120B4
:101AB00070474EF21002CEF2000251604EF62351F2
:101AC000CEF20001F0230B70072190601160704787
:101AD000FEE7000070B540F60044C4F201040E4673
:101AE0000546204601210022FFF7A2F9002E18BF6B
:101AF0000126A4F580604FF480713246FFF798F913
:101B0000EA0920464FF40041FFF792F920464FF4CE
:101B100000510022FFF78CF920464FF400510122BA
:101B2000FFF786F9C5F3801220464FF40041FFF716
:101B30007FF920464FF400510022FFF779F9204643
:101B40004FF400510122FFF773F9C5F3401220460C
:101B50004FF40041FFF76CF920464FF4005100228A
:101B6000FFF766F920464FF400510122FFF760F9B4
:101B7000C5F3001220464FF40041FFF759F9204603
:101B80004FF400510022FFF753F920464FF4005163
:101B90000122FFF74DF9C5F3C00220464FF4004182
:101BA000FFF746F920464FF400510022FFF740F9B5
:101BB00020464FF400510122FFF73AF9C5F38002A5
:101BC00020464FF40041FFF733F920464FF400510F
:101BD0000022FFF72DF920464FF400510122FFF7B4
:101BE00027F9C5F3400220464FF40041FFF720F9E2
:101BF00020464FF400510022FFF71AF920464FF417
:101C000000510122FFF714F905F0010220464FF4BC
:101C10000041FFF70DF920464FF400510022FFF775
:101C200007F920464FF400510122FFF701F9204641
:101C300001210122BDE87040FFF7FAB810B54FF45A
:101C4000FC7400BF00200121FFF744FF013CF9D1E3
:101C500010BD000010B540F60044C4F20104204657
:101C60004FF480410022FFF7E3F8204602210022D2
:101C7000FFF7DEF8A4F580604FF480710122FFF7D2
:101C8000D7F820464FF400410122FFF7D1F8204653
:101C90004FF400510122FFF7CBF820460121012229
:101CA000FFF7C6F80A20FEF7A5FF20460221012211
:101CB000FFF7BEF821200021FFF70CFFB72000211D
:101CC000FFF708FF14200021FFF704FF0620002182
:101CD000FFF700FF20200021FFF7FCFE4FF4FC740B
:101CE00000200121FFF7F6FE013CF9D10C20002174
:101CF000BDE81040FFF7EEBE10B501EB410440F027
:101D000040000021FFF7E6FE802040EA4400C0B218
:101D10000021BDE81040FFF7DDBE000070B502787D
:101D2000002A08BF70BD40F20C05441EC2F2000537
:101D300091B300BFA2F12000C0B200EB400015F843
:101D4000101005EB400681F0FF000121FFF7C2FEF5
:101D50007078012180F0FF00FFF7BCFEB078012110
:101D600080F0FF00FFF7B6FEF078012180F0FF0061
:101D7000FFF7B0FE3079012180F0FF00FFF7AAFEE7
:101D80007079012180F0FF00FFF7A4FEA2780134F2
:101D9000002ACFD124E000BFA2F12000C0B200EBA6
:101DA000400115F8110005EB41060121FFF792FEF5
:101DB00070780121FFF78EFEB0780121FFF78AFECF
:101DC000F0780121FFF786FE30790121FFF782FECE
:101DD00070790121FFF77EFEA2780134002ADBD161
:101DE00070BD0000FEE70000FEE700007047000045
:101DF0002DE9F04182B01E4690460D460446FFF79D
:101E00001DF8301A00EB0807FFF718F840F2080138
:101E1000C2F200010968C1F3CB3179430191216815
:101E20008A682A40AA4227D1064618F101001FD02D
:101E3000FFF704F8801BB84222D2019801990028CC
:101E4000A1F1010101912168896808BF074601EAF3
:101E50000500A842ECD00FE088682840A8420BD1CA
:101E600088682840A84207D188682840A84203D142
:101E700088682840A842EFD0002002B0BDE8F08179
:101E8000D4E900014268B1F5827F22F0E0024260AD
:101E90000AD1A168B1F5004F02D0B1F5806F03D12E
:101EA000016821F040010160A16AB1F5005F07D12E
:101EB000016821F400510160016841F400510160A2
:101EC000012084F85100002084F85000032002B063
:101ED000BDE8F08170470000FEF7B6BF7047000014
:101EE000FEE700002DE9F04F85B01A20FEF7F0FD67
:101EF000FEF7A4FF044600BF1920FEF7E9FD8005A8
:101F00000AD4FEF79BFF001B1428F5D900242046B5
:101F100005B0BDE8F08F00BF0A20FEF7D9FD00280C
:101F20004FF00004F3D040F29826C2F200060DF103
:101F300013054FF0640A0DF112080DF111090DF1AE
:101F4000100B0021002009E00A20FEF7C1FDDDE9A9
:101F500002210144092A02F101004BD2CDE902011C
:101F60001A20FEF7B5FDFEF769FF0746B068318815
:101F700019228DF813200022FEF75AFF0A20FEF7DF
:101F8000F7FD7068294601226423FFF74DFB1920F5
:101F9000FEF7EEFD70682946424601238DF8134096
:101FA000CDF800A0FFF72CFC0520FEF7E1FD7068DE
:101FB00029464A460123CDF800A0FFF721FC052061
:101FC000FEF7D6FD706829465A460123CDF800A0D9
:101FD000FFF716FCB06831880122FEF729FF9DF853
:101FE00011008007B0D4FEF729FFC01B1428BDD90B
:101FF0000020ACE746F26760C6F2666081FB000134
:10200000881000EBD174204605B0BDE8F08F0000C9
:102010002DE9F04F85B01A20FEF75AFDFEF70EFFAE
:10202000044600BF1920FEF753FD800504D4FEF7D7
:1020300005FF001B1528F5D30D20FEF749FD0028EC
:102040004FF000046FD040F29826C2F200060DF166
:1020500013054FF0640A0DF112080DF111090DF18D
:10206000100B0021002009E00D20FEF731FD03993F
:1020700001440298092800F101004BD2CDE9020188
:102080001A20FEF725FDFEF7D9FE0746B068318815
:1020900019228DF813200022FEF7CAFE0A20FEF74F
:1020A00067FD7068294601226423FFF7BDFA1920F5
:1020B000FEF75EFD70682946424601238DF8134005
:1020C000CDF800A0FFF79CFB0520FEF751FD7068DE
:1020D00029464A460123CDF800A0FFF791FB0520D1
:1020E000FEF746FD706829465A460123CDF800A048
:1020F000FFF786FBB06831880122FEF799FE9DF854
:1021000011008007B0D4FEF799FEC01B1528BDD37F
:10211000AAE700BF46F26760C6F2666081FB000175
:10212000881000EBD174204605B0BDE8F08F0000A8
:1021300010B582B0C90041EAC01040F2982440EACC
:102140004210C2F2000440EA0302A06821888DF820
:1021500006200022FEF76CFEA3208DF807000A205F
:10216000FEF706FD60680DF1070101226423FFF709
:102170005BFA3220FEF7FCFC60680DF106010122DB
:102180006423FFF751FA3220FEF7F2FCA0682188A1
:102190000122FEF74DFE02B010BD000090B0FEF728
:1021A00061FE00240120CDE90B44CDE909440690ED
:1021B0000A904FF4E0104FF4803102250F9006A8EA
:1021C000CDE90714CDE90D51FEF7C2FF20B1EFF3C1
:1021D000108072B6FEE700BF0F20CDE901054FF475
:1021E0008060CDE9040401A802210394FEF7D0FE2B
:1021F00020B1EFF3108072B6FEE700BF41F2180085
:10220000C4F20200016840F6004941F0200101607B
:102210000168C4F2010901F02001069106990168E4
:10222000002241F00401016001684EF2070601F04E
:102230000401069106990168002741F00801016038
:1022400000684EF2070100F0080006900698484624
:10225000FEF7EEFDA9F5806528464FF48071002257
:102260004FF48078FEF7E4FD069606AE4FF0010AC3
:10227000022448463146CDE907A70994FEF7CEFC73
:1022800028463146CDE9068ACDE90874FEF7C6FC3A
:1022900040F2CC2009F51051C2F200004FF48272D6
:1022A0004FF40073182680E886000A21C0E90377FE
:1022B000C0E90573C661C0E90877C0E90A71FFF794
:1022C00021F928B1EFF3108072B600BFFEE700BF1E
:1022D00040F2CC20C2F2000049460422FEF7E0FBA7
:1022E000002000F067F80020002100220023FFF703
:1022F0001FFF02200221022200F08CF800F056F8A5
:10230000FFF7A8FCFFF79AFC00200021FFF7F4FC80
:102310001CA00021FFF702FD40F2A424C2F2000439
:102320000FF270081EA500BFFFF772FE00F01AFD45
:102330002060FFF7D7FD00F015FD216860600846BA
:1023400000F0E4FC04F1080602460B463046414624
:10235000FDF766FF606800F0D9FC04F1180702463B
:102360000B4638462946FDF75BFF00200021FFF7AA
:10237000C3FC30460021FFF7D1FC38460021FFF7AF
:10238000CDFCD1E746696E616C2050726F6A65635F
:102390007400000055413A20252E32662056000078
:1023A00049413A20252E3266204100001A20FEF7CE
:1023B0008FBB000010B582B040F29824C2F2000436
:1023C000A26821888DF8060010460022FEF730FD35
:1023D00097208DF807000A20FEF7CAFB60680DF110
:1023E000070101226423FFF71FF93220FEF7C0FB2B
:1023F00060680DF1060101226423FFF715F9322010
:10240000FEF7B6FBA06821880122FEF711FD02B09D
:1024100010BD000070B582B040F29826C2F20006EE
:102420001446B2680D4631888DF80200104600222D
:10243000FEF7FEFCC2208DF803000A20FEF798FB91
:1024400070680DF1030101226423FFF7EDF83220DB
:10245000FEF78EFB70680DF1020101226423FFF785
:10246000E3F83220FEF784FBB06831880122FEF7E2
:10247000DFFCB068318800228DF80450FEF7D8FCEC
:10248000C3208DF805000A20FEF772FB70680DF17D
:10249000050101226423FFF7C7F83220FEF768FB2D
:1024A000706801A901226423FFF7BEF83220FEF70D
:1024B0005FFBB06831880122FEF7BAFCB068318852
:1024C00000228DF80640FEF7B3FCC4208DF807000B
:1024D0000A20FEF74DFB70680DF10701012264230D
:1024E000FFF7A2F83220FEF743FB70680DF10601FA
:1024F00001226423FFF798F83220FEF739FBB06819
:1025000031880122FEF794FC02B070BD5FEA400CF6
:1025100008BF91F0000F4FEA8C234FEAC12243EA33
:1025200051514FEA1C5018BF00F5F0404FEA3000FF
:1025300018BF41F000415FEA6C5C00F02980BCF1FB
:10254000FF3F08BF40F080407047130C06BF1204E5
:102550004FF0100C4FF0000C130E04BF12020CF1E0
:10256000080C130F04BF12010CF1040C930F04BFED
:1025700092000CF1020CD30F04BF52000CF1010CBD
:1025800011464FF00002A0F11F00A0EB0C007047B5
:1025900011F0004F08BF704731F000413FF4D5AF54
:1025A0000B0C06BF09044FF0100C4FF0000C0B0E83
:1025B00004BF09020CF1080C0B0F04BF09010CF158
:1025C000040C8B0F04BF89000CF1020CCB0F04BF6D
:1025D00049000CF1010CCCF1200322FA03F341EA8B
:1025E000030102FA0CF2A0EB0C0000F101007047AD
:1025F00023F07F4720F07F4C80EA030000F000408A
:10260000ACEB070303F57C5303F1FF032DE980498D
:1026100009B44FEA144324EA03484FEA154B25EA6C
:102620000B4E0FF2042606EB13273E7803FB0667DA
:10263000C7F5000707FB06F64FEAD64606F1020685
:102640004FEA543707FB066CCCF1005C4FEA1C479D
:102650002CEA074C0CFB06F507FB06F404EB1546C9
:102660004FEA961649085FEA320234BF00204FF065
:1026700000404FEAD13706FB07FC4FEA1C4C0CFB2D
:102680000BF7D21B03FB0CF761EB07010CFB0EF7FA
:10269000B0EB074072EB17420CFB08F734BFA2EB1C
:1026A0000742B2EB074261EB17414FEA0C444FEA95
:1026B000910706FB07FC4FEA1C4C0CFB0BF7B0EB39
:1026C000C74072EB573203FB0CF734BFA2EBC74293
:1026D000B2EBC74261EB57310CFB0EF7B0EBC70012
:1026E00072EB57720CFB08F734BFA2EBC702B2EBD8
:1026F000C70261EB57714FEA816141EA92114FEADB
:10270000826242EA90124FEA806004EBCC04039F9D
:102710004FEAD13706FB07FC4FEA1C4C0CFB0BF7CA
:10272000D21B03FB0CF761EB07010CFB0EF7B0EBC0
:10273000074072EB17420CFB08F734BFA2EB0742CD
:10274000B2EB074261EB17414FEA8C5504EB9C2436
:102750004FEA910706FB07FC4FEA1C4C0CFB0BF7FA
:10276000B0EBC74072EB573203FB0CF734BFA2EB60
:10277000C742B2EBC74261EB57310CFB0EF7B0EB2F
:10278000C70072EB57720CFB08F734BFA2EBC7020D
:10279000B2EBC70261EB57714FEA816141EA9211D6
:1027A0004FEA826242EA90124FEA806015EB4C25B4
:1027B00044F100044FEAD13706FB07FC4FEA1C4CFA
:1027C0000CFB0BF7D21B03FB0CF761EB07010CFBB7
:1027D0000EF7B0EB074072EB17420CFB08F734BF63
:1027E000A2EB0742B2EB074261EB17414FEA81319E
:1027F00041EA92414FEA823242EA90424FEA803007
:102800004FEA0C7615EB1C1544F1000448EA03432B
:102810004EEA0B484FF0000EB2EB080C71EB0307C9
:1028200024BF624639464EEB0E0E4FF0000B0018E7
:10283000524149414BEB0B0BB2EB080C71EB030718
:102840007BF1000B24BF624639464EEB0E0E4FF073
:10285000000B0018524149414BEB0B0BB2EB080C3B
:1028600071EB03077BF1000B24BF624639464EEB48
:102870000E0E51EA020718BF46F0010616EB0E765F
:1028800055F1000254F1000103D5BDE88901BDE80E
:102890000088BDE88901BDE80048B619524141EB06
:1028A0000101A3F10103704780807F7E7D7C7B7AEC
:1028B0007978777676757473727171706F6E6E6DEC
:1028C0006C6C6B6A6A696868676666656464636392
:1028D00062616160605F5F5E5E5D5D5C5C5B5B5A18
:1028E0005A59595858575756565555555454535385
:1028F00052525251515050504F4F4F4E4E4D4D4DE0
:102900004C4C4C4B4B4B4A4A4A494949484848472A
:102910004747474646464545454444444443434368
:1029200043424242424141419C46002B30D4770011
:102930002BD04FEA37071CB503B44FF010004FF00F
:102940001001BAF1000F06D0BCF1000FDCBF40F05F
:10295000080040F008014FF000000FBCBDE8104037
:102960000BF1010BBBF1010F08BF5FEA170722BF94
:1029700012F1010211F101014FF0004143F1000396
:1029800000F0004043EA00007047F9D35708D0E751
:1029900046EA06464FEA164613F1400F1FDD13F1D3
:1029A000200FDFBF16430A46002120335B42BED012
:1029B000C3F1200746EA06464FEA164602FA07F731
:1029C00046EA070622FA03F2C3F1200701FA07F7E5
:1029D00042EA070221FA03F14FF00003A7E746EAB3
:1029E000020646EA06464FEA164646EA0106BCBF1C
:1029F00046EA0646360C4FF000034FF000024FF057
:102A0000000194E72DE9804C70B49A46934691E812
:102A1000380007C831EA400C48BF34EA430C03D5FC
:102A2000FFF7E6FDFFF780FFF0BCBDE8008C2DE965
:102A3000804C70B49A46934691E8380007C810F06D
:102A4000804F08BF13F0804F03D100F005F8FFF767
:102A50006BFFF0BCBDE8008C20F07F4723F07F4C7B
:102A600080EA030000F0004007EB0C03A3F57C5361
:102A7000A3F1FE0392F0000F00F0B38095F0000F79
:102A800000F077802DE901494FEA114021EA004822
:102A90004FEA144624EA064700FB06FC08FB06F64C
:102AA00007FB08F818EB06484CEB164C00FB07F741
:102AB00018EB07484CEB17404FEA124B22EA0B4E3B
:102AC0004FEA154625EA06470BFB06FC0EFB06F609
:102AD00007FB0EFE1EEB064E4CEB164C0BFB07F7EE
:102AE0001EEB074E4CEB174B18EB0B0840F10000A8
:102AF00018EB0E0B58EB000840F100008F1A4FF056
:102B000000014FF000063CBFC943661B14BFB5EB84
:102B1000040C00213CBFC943F61B4FEA174427EAC7
:102B200004454FEA1C472CEA074C04FB076205FBEF
:102B300007F70CFB05F616EB074642EB174204FBC2
:102B40000CFC16EB0C4642EB1C421BEB060658EB4A
:102B5000020241414EEA8E0E46EA9E0601D5BDE8CC
:102B60000189B619524141EB0101A3F10103BDE80E
:102B700001894FEA144524EA05464FEA114721EA44
:102B8000074C05FB07F406FB07F70CFB06F111EBFE
:102B9000074144EB174405FB0CFC11EB0C4144EBE3
:102BA0001C444FEA124722EA074C05FB07F206FBDA
:102BB00007F70CFB06F616EB074642EB174205FB40
:102BC0000CFC16EB0C4642EB1C456A1854F1000154
:102BD00048BF7047B619524141EB0101A3F101030F
:102BE000704795F0000F37D04FEA114221EA0246B4
:102BF0004FEA144724EA074C02FB07F106FB07F7EC
:102C00000CFB06F414EB074441EB174102FB0CFCF0
:102C100014EB0C4441EB1C414FEA154725EA074CE5
:102C200002FB07F506FB07F70CFB06F616EB07465B
:102C300045EB174502FB0CFC16EB0C4645EB1C4222
:102C4000121951F1000148BF7047B619524141EBCA
:102C50000101A3F1010370474FEA144524EA054638
:102C60004FEA114721EA074C05FB07F106FB07F77E
:102C70000CFB06F212EB074241EB174105FB0CFC83
:102C800012EB0C4251EB1C414FF0000648BF70475D
:102C9000921841EB0101A3F101037047490050EA8A
:102CA000C12018BF04204A0D18BF40F0010040F2B7
:102CB000FF72B2EB515F08BF40F00200012808BF6D
:102CC0000520704730380A2801D2012070470020C3
:102CD0007047000010B500290AD00878002807D0F6
:102CE00005487844FDF794FE002801D0002010BD6F
:102CF0000248784410BD00001A02000012020000D1
:102D00000808A0F500114FEA3101704743004FEA6F
:102D1000D30C4FEA3C0C43401FBF40070CF16051FD
:102D200013F0FE4F70471CF0006F03D10CF0004110
:102D3000002070470CF0004343EA507040EACC009A
:102D400010B500F027F800BF000000924FEA000124
:102D5000FFF7D6BF4FF00041A1F500214FF0000072
:102D60007047000010F0004148BF4042B0FA80F3C5
:102D700010FA03F2C3F19D030BD051EAC35101EBEA
:102D80001220530638BF704700F1010008BF20F041
:102D9000010070470EF1020E2EF0030E5EF8044B98
:102DA000244204D44FEA4102B2F17F4F11D84FEAD6
:102DB0004003B3F17F4F0CD80ED14FEAD07C0CEB1F
:102DC0004C0C0CF1020CB2F17F4F08BF4CEBD17CE4
:102DD00004E04FF0080C01E04FEAD17C0CEB4C030F
:102DE00024FA03F404F00704B4F1040C06D20EEB49
:102DF000840CBDE810404CF0010C6047DFE80CF09B
:102E0000070802024FF00040A0F5800010BD084600
:102E1000420018BFD2F1807288BF00F0004010BDA0
:102E2000FDF774BB02400000000000A0000000009D
:102E300005400000000000C8000000000C40000039
:102E40000000409C00000000194000000020BCBEB3
:102E50000000000034400000BFC91B8E00000004C9
:102E6000B5400000504BCFD06607E2CF0100000014
:102E70006C4100003E8251AADFEEA7340100000041
:102E8000D9420000DCB5A0E23A301F97FFFFFFFFF8
:102E9000B4450000FD25A0C8E9A3C14FFFFFFFFF17
:102EA000FF3F00000000008000000000FF3F000026
:102EB000000000800000000001020000000000008F
:102EC00000000102030406070809020304050607BF
:102ED00008090A0B0C0D0E0F10100000182F000827
:102EE000000000203802000028010008E03000083F
:102EF00038020020F0060000840100081C000000D9
:102F000043000000F8FFFFFF0C0000000E0000006F
:102F10000F0000002E00000032014210A324F442F2
:102F20002F1A0702111B147F021116242A7F2A125E
:102F3000166264081323263649552250430503348C
:102F40001C22411C41221C2A15083E08141A08069E
:102F5000320823A0602A0801211A600B11162010E4
:102F6000080402263E5149453E1C427F400515613A
:102F7000514946162141454B31161814127F10163F
:102F80002745454539163C4A4949301C01710962BB
:102F900016364949493626064949291E4336362AF6
:102FA00056062B0814782A1401297E1314081602D9
:102FB0000151090616324959513E167C1211127CF4
:102FC0003A7F3C163E414141221A7F053A1C1212BB
:102FD000411E7F09090901181449497A1A7FA11A6B
:102FE0007F421A7F4E1E2040413F0112295B1B7F0A
:102FF000400111167F020C027F3E7F0408107F48BB
:103000003A3E3C1A060C1C51215E0C141929461A32
:10301000465412311601017F01011A3F35123F1E3D
:103020001F2040201F0C1A380C1663140814631656
:10303000070870080719EF234543198B211B552AF0
:103040000219781A417D16040201020429712240F6
:10305000290B11162054545478167F484444382EB6
:1030600038444444200613487F1A381812181608AA
:103070007E0901021D18A4A4A4E425080404781BF9
:10308000447D3B1D4080847D5F341028441B417F7C
:10309000121C7C04181E3A7C242948123816FC2481
:1030A0002424181A18053AFC1812081A4854122039
:1030B00016043F444020163C4040207C1A1CC01A95
:1030C0001C0C1430403C2B44284F161CA0A0A07CA4
:1030D0001D4464544C5B45060909060000000000CD
:04000005080000ED02
:00000001FF
